{
  "contractName": "ERC20Basic",
  "abi": [
    {
      "inputs": [
        {
          "internalType": "uint256",
          "name": "_initialSupply",
          "type": "uint256"
        }
      ],
      "stateMutability": "nonpayable",
      "type": "constructor"
    },
    {
      "anonymous": false,
      "inputs": [
        {
          "indexed": true,
          "internalType": "address",
          "name": "owner",
          "type": "address"
        },
        {
          "indexed": true,
          "internalType": "address",
          "name": "spender",
          "type": "address"
        },
        {
          "indexed": false,
          "internalType": "uint256",
          "name": "tokens",
          "type": "uint256"
        }
      ],
      "name": "Approval",
      "type": "event"
    },
    {
      "anonymous": false,
      "inputs": [
        {
          "indexed": true,
          "internalType": "address",
          "name": "from",
          "type": "address"
        },
        {
          "indexed": true,
          "internalType": "address",
          "name": "to",
          "type": "address"
        },
        {
          "indexed": false,
          "internalType": "uint256",
          "name": "tokens",
          "type": "uint256"
        }
      ],
      "name": "Transfer",
      "type": "event"
    },
    {
      "inputs": [],
      "name": "decimals",
      "outputs": [
        {
          "internalType": "uint8",
          "name": "",
          "type": "uint8"
        }
      ],
      "stateMutability": "view",
      "type": "function"
    },
    {
      "inputs": [],
      "name": "name",
      "outputs": [
        {
          "internalType": "string",
          "name": "",
          "type": "string"
        }
      ],
      "stateMutability": "view",
      "type": "function"
    },
    {
      "inputs": [],
      "name": "smart_contract",
      "outputs": [
        {
          "internalType": "address",
          "name": "",
          "type": "address"
        }
      ],
      "stateMutability": "view",
      "type": "function"
    },
    {
      "inputs": [],
      "name": "symbol",
      "outputs": [
        {
          "internalType": "string",
          "name": "",
          "type": "string"
        }
      ],
      "stateMutability": "view",
      "type": "function"
    },
    {
      "inputs": [],
      "name": "AddressContract",
      "outputs": [
        {
          "internalType": "address",
          "name": "",
          "type": "address"
        }
      ],
      "stateMutability": "view",
      "type": "function"
    },
    {
      "inputs": [],
      "name": "totalSupply",
      "outputs": [
        {
          "internalType": "uint256",
          "name": "",
          "type": "uint256"
        }
      ],
      "stateMutability": "view",
      "type": "function"
    },
    {
      "inputs": [
        {
          "internalType": "uint256",
          "name": "_newTokensAmount",
          "type": "uint256"
        }
      ],
      "name": "increaseTotalSupply",
      "outputs": [],
      "stateMutability": "nonpayable",
      "type": "function"
    },
    {
      "inputs": [
        {
          "internalType": "address",
          "name": "_tokenOwner",
          "type": "address"
        }
      ],
      "name": "balanceOf",
      "outputs": [
        {
          "internalType": "uint256",
          "name": "",
          "type": "uint256"
        }
      ],
      "stateMutability": "view",
      "type": "function"
    },
    {
      "inputs": [
        {
          "internalType": "address",
          "name": "owner",
          "type": "address"
        },
        {
          "internalType": "address",
          "name": "delegate",
          "type": "address"
        }
      ],
      "name": "allowance",
      "outputs": [
        {
          "internalType": "uint256",
          "name": "",
          "type": "uint256"
        }
      ],
      "stateMutability": "view",
      "type": "function"
    },
    {
      "inputs": [
        {
          "internalType": "address",
          "name": "recipient",
          "type": "address"
        },
        {
          "internalType": "uint256",
          "name": "_numTokens",
          "type": "uint256"
        }
      ],
      "name": "transfer",
      "outputs": [
        {
          "internalType": "bool",
          "name": "",
          "type": "bool"
        }
      ],
      "stateMutability": "nonpayable",
      "type": "function"
    },
    {
      "inputs": [
        {
          "internalType": "address",
          "name": "emisor",
          "type": "address"
        },
        {
          "internalType": "address",
          "name": "recipient",
          "type": "address"
        },
        {
          "internalType": "uint256",
          "name": "_numTokens",
          "type": "uint256"
        }
      ],
      "name": "transferencia_loteria",
      "outputs": [
        {
          "internalType": "bool",
          "name": "",
          "type": "bool"
        }
      ],
      "stateMutability": "nonpayable",
      "type": "function"
    },
    {
      "inputs": [
        {
          "internalType": "address",
          "name": "_delegate",
          "type": "address"
        },
        {
          "internalType": "uint256",
          "name": "_numTokens",
          "type": "uint256"
        }
      ],
      "name": "approve",
      "outputs": [
        {
          "internalType": "bool",
          "name": "",
          "type": "bool"
        }
      ],
      "stateMutability": "nonpayable",
      "type": "function"
    },
    {
      "inputs": [
        {
          "internalType": "address",
          "name": "owner",
          "type": "address"
        },
        {
          "internalType": "address",
          "name": "buyer",
          "type": "address"
        },
        {
          "internalType": "uint256",
          "name": "_numTokens",
          "type": "uint256"
        }
      ],
      "name": "transferFrom",
      "outputs": [
        {
          "internalType": "bool",
          "name": "",
          "type": "bool"
        }
      ],
      "stateMutability": "nonpayable",
      "type": "function"
    }
  ],
  "bytecode": "0x608060405234801561001057600080fd5b50604051611215380380611215833981810160405281019061003291906100da565b80600381905550600354600160003373ffffffffffffffffffffffffffffffffffffffff1673ffffffffffffffffffffffffffffffffffffffff16815260200190815260200160002081905550306000806101000a81548173ffffffffffffffffffffffffffffffffffffffff021916908373ffffffffffffffffffffffffffffffffffffffff16021790555050610124565b6000815190506100d48161010d565b92915050565b6000602082840312156100ec57600080fd5b60006100fa848285016100c5565b91505092915050565b6000819050919050565b61011681610103565b811461012157600080fd5b50565b6110e2806101336000396000f3fe608060405234801561001057600080fd5b50600436106100cf5760003560e01c8063313ce5671161008c57806395d89b411161006657806395d89b4114610216578063a9059cbb14610234578063dd62ed3e14610264578063f7a1d19414610294576100cf565b8063313ce567146101aa578063552cc062146101c857806370a08231146101e6576100cf565b806306fdde03146100d4578063095ea7b3146100f25780630a22b1341461012257806318160ddd146101405780631d43cc981461015e57806323b872dd1461017a575b600080fd5b6100dc6102c4565b6040516100e99190610f71565b60405180910390f35b61010c60048036038101906101079190610e61565b6102fd565b6040516101199190610f56565b60405180910390f35b61012a61043b565b6040516101379190610f3b565b60405180910390f35b610148610464565b6040516101559190610f93565b60405180910390f35b61017860048036038101906101739190610e9d565b61046e565b005b610194600480360381019061018f9190610e12565b6104ce565b6040516101a19190610f56565b60405180910390f35b6101b261084e565b6040516101bf9190610fae565b60405180910390f35b6101d0610853565b6040516101dd9190610f3b565b60405180910390f35b61020060048036038101906101fb9190610dad565b610878565b60405161020d9190610f93565b60405180910390f35b61021e6108c1565b60405161022b9190610f71565b60405180910390f35b61024e60048036038101906102499190610e61565b6108fa565b60405161025b9190610f56565b60405180910390f35b61027e60048036038101906102799190610dd6565b610ae1565b60405161028b9190610f93565b60405180910390f35b6102ae60048036038101906102a99190610e12565b610b68565b6040516102bb9190610f56565b60405180910390f35b6040518060400160405280600c81526020017f546f6b656e4c6f7465726961000000000000000000000000000000000000000081525081565b6000600160003373ffffffffffffffffffffffffffffffffffffffff1673ffffffffffffffffffffffffffffffffffffffff1681526020019081526020016000205482111561034b57600080fd5b81600260003373ffffffffffffffffffffffffffffffffffffffff1673ffffffffffffffffffffffffffffffffffffffff16815260200190815260200160002060008573ffffffffffffffffffffffffffffffffffffffff1673ffffffffffffffffffffffffffffffffffffffff168152602001908152602001600020819055508273ffffffffffffffffffffffffffffffffffffffff163373ffffffffffffffffffffffffffffffffffffffff167f8c5be1e5ebec7d5bd14f71427d1e84f3dd0314c0f7b2291e5b200ac8c7c3b925846040516104299190610f93565b60405180910390a36001905092915050565b60008060009054906101000a900473ffffffffffffffffffffffffffffffffffffffff16905090565b6000600354905090565b8060036000828254019250508190555080600160003373ffffffffffffffffffffffffffffffffffffffff1673ffffffffffffffffffffffffffffffffffffffff1681526020019081526020016000206000828254019250508190555050565b6000600160008573ffffffffffffffffffffffffffffffffffffffff1673ffffffffffffffffffffffffffffffffffffffff1681526020019081526020016000205482111561051c57600080fd5b600260008573ffffffffffffffffffffffffffffffffffffffff1673ffffffffffffffffffffffffffffffffffffffff16815260200190815260200160002060003373ffffffffffffffffffffffffffffffffffffffff1673ffffffffffffffffffffffffffffffffffffffff168152602001908152602001600020548211156105a557600080fd5b6105f782600160008773ffffffffffffffffffffffffffffffffffffffff1673ffffffffffffffffffffffffffffffffffffffff16815260200190815260200160002054610d5090919063ffffffff16565b600160008673ffffffffffffffffffffffffffffffffffffffff1673ffffffffffffffffffffffffffffffffffffffff168152602001908152602001600020819055506106c982600260008773ffffffffffffffffffffffffffffffffffffffff1673ffffffffffffffffffffffffffffffffffffffff16815260200190815260200160002060003373ffffffffffffffffffffffffffffffffffffffff1673ffffffffffffffffffffffffffffffffffffffff16815260200190815260200160002054610d5090919063ffffffff16565b600260008673ffffffffffffffffffffffffffffffffffffffff1673ffffffffffffffffffffffffffffffffffffffff16815260200190815260200160002060003373ffffffffffffffffffffffffffffffffffffffff1673ffffffffffffffffffffffffffffffffffffffff1681526020019081526020016000208190555061079b82600160008673ffffffffffffffffffffffffffffffffffffffff1673ffffffffffffffffffffffffffffffffffffffff16815260200190815260200160002054610d6790919063ffffffff16565b600160008573ffffffffffffffffffffffffffffffffffffffff1673ffffffffffffffffffffffffffffffffffffffff168152602001908152602001600020819055508273ffffffffffffffffffffffffffffffffffffffff168473ffffffffffffffffffffffffffffffffffffffff167fddf252ad1be2c89b69c2b068fc378daa952ba7f163c4a11628f55a4df523b3ef8460405161083b9190610f93565b60405180910390a3600190509392505050565b600281565b6000809054906101000a900473ffffffffffffffffffffffffffffffffffffffff1681565b6000600160008373ffffffffffffffffffffffffffffffffffffffff1673ffffffffffffffffffffffffffffffffffffffff168152602001908152602001600020549050919050565b6040518060400160405280600381526020017f4c4f54000000000000000000000000000000000000000000000000000000000081525081565b6000600160003373ffffffffffffffffffffffffffffffffffffffff1673ffffffffffffffffffffffffffffffffffffffff1681526020019081526020016000205482111561094857600080fd5b61099a82600160003373ffffffffffffffffffffffffffffffffffffffff1673ffffffffffffffffffffffffffffffffffffffff16815260200190815260200160002054610d5090919063ffffffff16565b600160003373ffffffffffffffffffffffffffffffffffffffff1673ffffffffffffffffffffffffffffffffffffffff16815260200190815260200160002081905550610a2f82600160008673ffffffffffffffffffffffffffffffffffffffff1673ffffffffffffffffffffffffffffffffffffffff16815260200190815260200160002054610d6790919063ffffffff16565b600160008573ffffffffffffffffffffffffffffffffffffffff1673ffffffffffffffffffffffffffffffffffffffff168152602001908152602001600020819055508273ffffffffffffffffffffffffffffffffffffffff163373ffffffffffffffffffffffffffffffffffffffff167fddf252ad1be2c89b69c2b068fc378daa952ba7f163c4a11628f55a4df523b3ef84604051610acf9190610f93565b60405180910390a36001905092915050565b6000600260008473ffffffffffffffffffffffffffffffffffffffff1673ffffffffffffffffffffffffffffffffffffffff16815260200190815260200160002060008373ffffffffffffffffffffffffffffffffffffffff1673ffffffffffffffffffffffffffffffffffffffff16815260200190815260200160002054905092915050565b6000600160008573ffffffffffffffffffffffffffffffffffffffff1673ffffffffffffffffffffffffffffffffffffffff16815260200190815260200160002054821115610bb657600080fd5b610c0882600160008773ffffffffffffffffffffffffffffffffffffffff1673ffffffffffffffffffffffffffffffffffffffff16815260200190815260200160002054610d5090919063ffffffff16565b600160008673ffffffffffffffffffffffffffffffffffffffff1673ffffffffffffffffffffffffffffffffffffffff16815260200190815260200160002081905550610c9d82600160008673ffffffffffffffffffffffffffffffffffffffff1673ffffffffffffffffffffffffffffffffffffffff16815260200190815260200160002054610d6790919063ffffffff16565b600160008573ffffffffffffffffffffffffffffffffffffffff1673ffffffffffffffffffffffffffffffffffffffff168152602001908152602001600020819055508273ffffffffffffffffffffffffffffffffffffffff168473ffffffffffffffffffffffffffffffffffffffff167fddf252ad1be2c89b69c2b068fc378daa952ba7f163c4a11628f55a4df523b3ef84604051610d3d9190610f93565b60405180910390a3600190509392505050565b600082821115610d5c57fe5b818303905092915050565b600080828401905083811015610d7957fe5b8091505092915050565b600081359050610d928161107e565b92915050565b600081359050610da781611095565b92915050565b600060208284031215610dbf57600080fd5b6000610dcd84828501610d83565b91505092915050565b60008060408385031215610de957600080fd5b6000610df785828601610d83565b9250506020610e0885828601610d83565b9150509250929050565b600080600060608486031215610e2757600080fd5b6000610e3586828701610d83565b9350506020610e4686828701610d83565b9250506040610e5786828701610d98565b9150509250925092565b60008060408385031215610e7457600080fd5b6000610e8285828601610d83565b9250506020610e9385828601610d98565b9150509250929050565b600060208284031215610eaf57600080fd5b6000610ebd84828501610d98565b91505092915050565b610ecf81610fe5565b82525050565b610ede81610ff7565b82525050565b6000610eef82610fc9565b610ef98185610fd4565b9350610f0981856020860161103a565b610f128161106d565b840191505092915050565b610f2681611023565b82525050565b610f358161102d565b82525050565b6000602082019050610f506000830184610ec6565b92915050565b6000602082019050610f6b6000830184610ed5565b92915050565b60006020820190508181036000830152610f8b8184610ee4565b905092915050565b6000602082019050610fa86000830184610f1d565b92915050565b6000602082019050610fc36000830184610f2c565b92915050565b600081519050919050565b600082825260208201905092915050565b6000610ff082611003565b9050919050565b60008115159050919050565b600073ffffffffffffffffffffffffffffffffffffffff82169050919050565b6000819050919050565b600060ff82169050919050565b60005b8381101561105857808201518184015260208101905061103d565b83811115611067576000848401525b50505050565b6000601f19601f8301169050919050565b61108781610fe5565b811461109257600080fd5b50565b61109e81611023565b81146110a957600080fd5b5056fea2646970667358221220602b5142c06cdbfdc5663df86cb8ebf7fa4abcaec65b7785c78c2a205f02afb664736f6c63430006080033",
  "immutableReferences": {},
  "source": "//SPDX-License-Identifier: MIT\r\npragma solidity >=0.4.4 <0.7.0;\r\npragma experimental ABIEncoderV2;\r\nimport \"./SafeMath.sol\";\r\n\r\n\r\ninterface ERC20\r\n{\r\n    //Devuelve la cantidad de tokens total\r\n    function totalSupply() external view returns(uint256);\r\n\r\n    //Cantidad de tokens de una wallet\r\n    function balanceOf(address account) external view returns(uint256);\r\n\r\n    //Numero de tokens que el spender puede gastar en nombre del propietario\r\n    function allowance(address owner, address spender) external view returns(uint256);\r\n\r\n    //Devuelve bool si se puede enviar esa cantidad al receptor\r\n    function transfer(address recipient, uint256 amount) external returns(bool);\r\n\r\n    function transferencia_loteria(address emisor, address recipient, uint256 _numTokens) external returns(bool);\r\n\r\n    //Devuelve bool con el resultado de la transacción\r\n    function approve(address spender, uint256 amount) external returns(bool);\r\n\r\n    //Devuelve bool de si se ha llevado acabo la transacción de allowance()\r\n    function transferFrom(address sender, address recipient, uint256 amount) external returns(bool);\r\n\r\n\r\n\r\n    //Evento cuando haya una transacción\r\n    event Transfer(address indexed from, address indexed to, uint256 value);\r\n\r\n    //Evento cuando se haya aprobado un allowance de que una direccion puede gastar tokens de un propietario\r\n    event Approval(address indexed owner, address indexed spender, uint256 value);\r\n}\r\n\r\n\r\n//Implementacion de las ERC20\r\ncontract ERC20Basic is ERC20\r\n{\r\n\r\n    string public constant name = \"TokenLoteria\";\r\n    string public constant symbol = \"LOT\";\r\n    uint8 public constant decimals = 2;\r\n    address public smart_contract;\r\n\r\n    mapping(address => uint) balances;\r\n\r\n    mapping(address => mapping(address => uint)) allowed;\r\n\r\n    uint256 totalSupply_;\r\n\r\n    constructor(uint256 _initialSupply) public{\r\n        totalSupply_ = _initialSupply;\r\n        balances[msg.sender] = totalSupply_;\r\n        smart_contract = address(this);\r\n    }\r\n\r\n    event Transfer(address indexed from, address indexed to, uint256 tokens);\r\n    event Approval(address indexed owner, address indexed spender, uint256 tokens);\r\n\r\n    using SafeMath for uint256;\r\n\r\n    function AddressContract() public view returns(address){\r\n        return smart_contract;\r\n    }\r\n\r\n\r\n    function totalSupply() public override view returns(uint256){\r\n        return totalSupply_;\r\n    }\r\n\r\n    function increaseTotalSupply(uint _newTokensAmount) public{\r\n        totalSupply_ += _newTokensAmount;\r\n        balances[msg.sender] += _newTokensAmount;\r\n    }\r\n\r\n    function balanceOf(address _tokenOwner) public override view returns(uint256){\r\n        return balances[_tokenOwner];\r\n    }\r\n\r\n    function allowance(address owner, address delegate) public override view returns(uint256){\r\n        return allowed[owner][delegate];\r\n    }\r\n\r\n    function transfer(address recipient, uint256 _numTokens) public override returns(bool){\r\n        require(_numTokens <= balances[msg.sender]);\r\n        balances[msg.sender] = balances[msg.sender].sub(_numTokens);\r\n        balances[recipient] = balances[recipient].add(_numTokens);\r\n\r\n        emit Transfer(msg.sender, recipient, _numTokens);\r\n        return true;\r\n    }\r\n\r\n      function transferencia_loteria(address emisor, address recipient, uint256 _numTokens) public override returns(bool){\r\n        require(_numTokens <= balances[emisor]);\r\n        balances[emisor] = balances[emisor].sub(_numTokens);\r\n        balances[recipient] = balances[recipient].add(_numTokens);\r\n\r\n        emit Transfer(emisor, recipient, _numTokens);\r\n        return true;\r\n    }\r\n\r\n\r\n    function approve(address _delegate, uint256 _numTokens) public override returns(bool){\r\n        require(_numTokens <= balances[msg.sender]);\r\n        allowed[msg.sender][_delegate] = _numTokens;\r\n\r\n        emit Approval(msg.sender, _delegate, _numTokens);\r\n        return true;\r\n\r\n    }\r\n\r\n    function transferFrom(address owner, address buyer, uint256 _numTokens) public override returns(bool){\r\n        require(_numTokens <= balances[owner]);\r\n        require(_numTokens <= allowed[owner][msg.sender]);\r\n\r\n        balances[owner] = balances[owner].sub(_numTokens);\r\n        allowed[owner][msg.sender] = allowed[owner][msg.sender].sub(_numTokens);\r\n        balances[buyer] = balances[buyer].add(_numTokens);\r\n\r\n        emit Transfer(owner, buyer, _numTokens);\r\n        return true;\r\n    }\r\n\r\n}",
  "sourcePath": "C:\\Users\\adote\\Desktop\\Proyecto\\Loteria\\src\\contracts\\ERC20.sol",
  "compiler": {
    "name": "solc",
    "version": "0.6.8+commit.0bbfe453.Emscripten.clang"
  },
  "schemaVersion": "3.4.2",
  "updatedAt": "2022-05-01T16:52:06.685Z",
  "devdoc": {
    "methods": {}
  },
  "userdoc": {
    "methods": {}
  }
}