{
  "contractName": "Loteria",
  "abi": [
    {
      "inputs": [],
      "stateMutability": "nonpayable",
      "type": "constructor"
    },
    {
      "anonymous": false,
      "inputs": [
        {
          "indexed": false,
          "internalType": "uint256",
          "name": "",
          "type": "uint256"
        },
        {
          "indexed": false,
          "internalType": "address",
          "name": "",
          "type": "address"
        }
      ],
      "name": "ComprandoTokens",
      "type": "event"
    },
    {
      "anonymous": false,
      "inputs": [
        {
          "indexed": false,
          "internalType": "uint256",
          "name": "",
          "type": "uint256"
        },
        {
          "indexed": false,
          "internalType": "address",
          "name": "",
          "type": "address"
        }
      ],
      "name": "boleto_comprado",
      "type": "event"
    },
    {
      "anonymous": false,
      "inputs": [
        {
          "indexed": false,
          "internalType": "uint256",
          "name": "",
          "type": "uint256"
        }
      ],
      "name": "boleto_ganador",
      "type": "event"
    },
    {
      "anonymous": false,
      "inputs": [
        {
          "indexed": false,
          "internalType": "uint256",
          "name": "",
          "type": "uint256"
        },
        {
          "indexed": false,
          "internalType": "address",
          "name": "",
          "type": "address"
        }
      ],
      "name": "tokens_devueltos",
      "type": "event"
    },
    {
      "inputs": [],
      "name": "PrecioBoleto",
      "outputs": [
        {
          "internalType": "uint256",
          "name": "",
          "type": "uint256"
        }
      ],
      "stateMutability": "view",
      "type": "function",
      "constant": true
    },
    {
      "inputs": [],
      "name": "contrato",
      "outputs": [
        {
          "internalType": "address",
          "name": "",
          "type": "address"
        }
      ],
      "stateMutability": "view",
      "type": "function",
      "constant": true
    },
    {
      "inputs": [],
      "name": "direccion_ganador",
      "outputs": [
        {
          "internalType": "address",
          "name": "",
          "type": "address"
        }
      ],
      "stateMutability": "view",
      "type": "function",
      "constant": true
    },
    {
      "inputs": [],
      "name": "owner",
      "outputs": [
        {
          "internalType": "address",
          "name": "",
          "type": "address"
        }
      ],
      "stateMutability": "view",
      "type": "function",
      "constant": true
    },
    {
      "inputs": [],
      "name": "tokens_creados",
      "outputs": [
        {
          "internalType": "uint256",
          "name": "",
          "type": "uint256"
        }
      ],
      "stateMutability": "view",
      "type": "function",
      "constant": true
    },
    {
      "inputs": [],
      "name": "DireccionToken",
      "outputs": [
        {
          "internalType": "address",
          "name": "",
          "type": "address"
        }
      ],
      "stateMutability": "view",
      "type": "function",
      "constant": true
    },
    {
      "inputs": [
        {
          "internalType": "uint256",
          "name": "_numTokens",
          "type": "uint256"
        }
      ],
      "name": "GeneraTokens",
      "outputs": [],
      "stateMutability": "nonpayable",
      "type": "function"
    },
    {
      "inputs": [],
      "name": "TokensDisponibles",
      "outputs": [
        {
          "internalType": "uint256",
          "name": "",
          "type": "uint256"
        }
      ],
      "stateMutability": "view",
      "type": "function",
      "constant": true
    },
    {
      "inputs": [
        {
          "internalType": "uint256",
          "name": "_numTokens",
          "type": "uint256"
        },
        {
          "internalType": "address",
          "name": "_propietario",
          "type": "address"
        }
      ],
      "name": "CompraTokens",
      "outputs": [],
      "stateMutability": "payable",
      "type": "function",
      "payable": true
    },
    {
      "inputs": [],
      "name": "Bote",
      "outputs": [
        {
          "internalType": "uint256",
          "name": "",
          "type": "uint256"
        }
      ],
      "stateMutability": "view",
      "type": "function",
      "constant": true
    },
    {
      "inputs": [
        {
          "internalType": "address",
          "name": "_direccion",
          "type": "address"
        }
      ],
      "name": "MisTokens",
      "outputs": [
        {
          "internalType": "uint256",
          "name": "",
          "type": "uint256"
        }
      ],
      "stateMutability": "view",
      "type": "function",
      "constant": true
    },
    {
      "inputs": [
        {
          "internalType": "uint256",
          "name": "_boletos",
          "type": "uint256"
        }
      ],
      "name": "CompraBoletos",
      "outputs": [],
      "stateMutability": "nonpayable",
      "type": "function"
    },
    {
      "inputs": [],
      "name": "TusBoletos",
      "outputs": [
        {
          "internalType": "uint256[]",
          "name": "",
          "type": "uint256[]"
        }
      ],
      "stateMutability": "view",
      "type": "function",
      "constant": true
    },
    {
      "inputs": [],
      "name": "GenerarGanador",
      "outputs": [],
      "stateMutability": "nonpayable",
      "type": "function"
    },
    {
      "inputs": [
        {
          "internalType": "uint256",
          "name": "_numTokens",
          "type": "uint256"
        }
      ],
      "name": "DevolverTokens",
      "outputs": [],
      "stateMutability": "payable",
      "type": "function",
      "payable": true
    }
  ],
  "bytecode": "0x60806040526127106004556005805560006008553480156200002057600080fd5b50600454604051620000329062000123565b6200003e919062000142565b604051809103906000f0801580156200005b573d6000803e3d6000fd5b506000806101000a81548173ffffffffffffffffffffffffffffffffffffffff021916908373ffffffffffffffffffffffffffffffffffffffff16021790555033600160006101000a81548173ffffffffffffffffffffffffffffffffffffffff021916908373ffffffffffffffffffffffffffffffffffffffff16021790555030600260006101000a81548173ffffffffffffffffffffffffffffffffffffffff021916908373ffffffffffffffffffffffffffffffffffffffff16021790555062000169565b6112158062001b0683390190565b6200013c816200015f565b82525050565b600060208201905062000159600083018462000131565b92915050565b6000819050919050565b61198d80620001796000396000f3fe6080604052600436106100e85760003560e01c80638c11ff4c1161008a578063ddf07e0a11610059578063ddf07e0a146102a4578063e1a01e67146102cd578063fd62ed8c146102f8578063fd889ff514610323576100e8565b80638c11ff4c146101f85780638da5cb5b14610223578063a9c5f4141461024e578063dd8e728d14610279576100e8565b806327909f27116100c657806327909f271461016f5780634ee4dfe01461019a5780635332eee5146101b657806374189861146101cd576100e8565b80630e03c03b146100ed5780631246f6e21461012a5780631890154c14610153575b600080fd5b3480156100f957600080fd5b50610114600480360381019061010f9190611212565b61034e565b6040516101219190611790565b60405180910390f35b34801561013657600080fd5b50610151600480360381019061014c919061128d565b610401565b005b61016d6004803603810190610168919061128d565b610522565b005b34801561017b57600080fd5b506101846106ec565b6040516101919190611790565b60405180910390f35b6101b460048036038101906101af91906112df565b6106f2565b005b3480156101c257600080fd5b506101cb6108c8565b005b3480156101d957600080fd5b506101e2610b89565b6040516101ef9190611790565b60405180910390f35b34801561020457600080fd5b5061020d610c5c565b60405161021a919061168e565b60405180910390f35b34801561022f57600080fd5b50610238610cf1565b6040516102459190611613565b60405180910390f35b34801561025a57600080fd5b50610263610d17565b6040516102709190611613565b60405180910390f35b34801561028557600080fd5b5061028e610dbd565b60405161029b9190611613565b60405180910390f35b3480156102b057600080fd5b506102cb60048036038101906102c6919061128d565b610de3565b005b3480156102d957600080fd5b506102e2611096565b6040516102ef9190611613565b60405180910390f35b34801561030457600080fd5b5061030d6110bc565b60405161031a9190611790565b60405180910390f35b34801561032f57600080fd5b506103386110c2565b6040516103459190611790565b60405180910390f35b60008060009054906101000a900473ffffffffffffffffffffffffffffffffffffffff1673ffffffffffffffffffffffffffffffffffffffff166370a08231836040518263ffffffff1660e01b81526004016103aa9190611613565b60206040518083038186803b1580156103c257600080fd5b505afa1580156103d6573d6000803e3d6000fd5b505050506040513d601f19601f820116820180604052508101906103fa91906112b6565b9050919050565b33600160009054906101000a900473ffffffffffffffffffffffffffffffffffffffff1673ffffffffffffffffffffffffffffffffffffffff168173ffffffffffffffffffffffffffffffffffffffff1614610492576040517f08c379a000000000000000000000000000000000000000000000000000000000815260040161048990611750565b60405180910390fd5b6000809054906101000a900473ffffffffffffffffffffffffffffffffffffffff1673ffffffffffffffffffffffffffffffffffffffff16631d43cc98836040518263ffffffff1660e01b81526004016104ec9190611790565b600060405180830381600087803b15801561050657600080fd5b505af115801561051a573d6000803e3d6000fd5b505050505050565b60008111610565576040517f08c379a000000000000000000000000000000000000000000000000000000000815260040161055c906116b0565b60405180910390fd5b61056e3361034e565b8111156105b0576040517f08c379a00000000000000000000000000000000000000000000000000000000081526004016105a7906116f0565b60405180910390fd5b6000809054906101000a900473ffffffffffffffffffffffffffffffffffffffff1673ffffffffffffffffffffffffffffffffffffffff1663f7a1d1943330846040518463ffffffff1660e01b815260040161060e9392919061162e565b602060405180830381600087803b15801561062857600080fd5b505af115801561063c573d6000803e3d6000fd5b505050506040513d601f19601f820116820180604052508101906106609190611264565b503373ffffffffffffffffffffffffffffffffffffffff166108fc61068483611195565b9081150290604051600060405180830381858888f193505050501580156106af573d6000803e3d6000fd5b507fedb4e62d28b4facd6d91f70625ac1ea2c1a9cac0ecc3e638b50633575d818a4e81336040516106e19291906117d4565b60405180910390a150565b60055481565b60006106fd83611195565b905080341015610742576040517f08c379a000000000000000000000000000000000000000000000000000000000815260040161073990611730565b60405180910390fd5b600081340390503373ffffffffffffffffffffffffffffffffffffffff166108fc829081150290604051600060405180830381858888f1935050505015801561078f573d6000803e3d6000fd5b506107986110c2565b8411156107da576040517f08c379a00000000000000000000000000000000000000000000000000000000081526004016107d190611770565b60405180910390fd5b6000809054906101000a900473ffffffffffffffffffffffffffffffffffffffff1673ffffffffffffffffffffffffffffffffffffffff1663a9059cbb84866040518363ffffffff1660e01b8152600401610836929190611665565b602060405180830381600087803b15801561085057600080fd5b505af1158015610864573d6000803e3d6000fd5b505050506040513d601f19601f820116820180604052508101906108889190611264565b507fc5d46be962adb867acf29dce93ab611e9064bffee951e4db9e52c693f73f4c3884846040516108ba9291906117ab565b60405180910390a150505050565b33600160009054906101000a900473ffffffffffffffffffffffffffffffffffffffff1673ffffffffffffffffffffffffffffffffffffffff168173ffffffffffffffffffffffffffffffffffffffff1614610959576040517f08c379a000000000000000000000000000000000000000000000000000000000815260040161095090611750565b60405180910390fd5b6000600980549050116109a1576040517f08c379a000000000000000000000000000000000000000000000000000000000815260040161099890611710565b60405180910390fd5b60006009805490509050600081426040516020016109bf91906115bb565b6040516020818303038152906040528051906020012060001c816109df57fe5b0690506000600982815481106109f157fe5b906000526020600020015490507f7ae8aa8a76009e9379a432b67d892b6006479447de6892c862ce780785a2387d81604051610a2d9190611790565b60405180910390a16007600082815260200190815260200160002060009054906101000a900473ffffffffffffffffffffffffffffffffffffffff16600360006101000a81548173ffffffffffffffffffffffffffffffffffffffff021916908373ffffffffffffffffffffffffffffffffffffffff1602179055506000809054906101000a900473ffffffffffffffffffffffffffffffffffffffff1673ffffffffffffffffffffffffffffffffffffffff1663f7a1d19433600360009054906101000a900473ffffffffffffffffffffffffffffffffffffffff16610b12610b89565b6040518463ffffffff1660e01b8152600401610b309392919061162e565b602060405180830381600087803b158015610b4a57600080fd5b505af1158015610b5e573d6000803e3d6000fd5b505050506040513d601f19601f82011682018060405250810190610b829190611264565b5050505050565b60008060009054906101000a900473ffffffffffffffffffffffffffffffffffffffff1673ffffffffffffffffffffffffffffffffffffffff166370a08231600160009054906101000a900473ffffffffffffffffffffffffffffffffffffffff166040518263ffffffff1660e01b8152600401610c079190611613565b60206040518083038186803b158015610c1f57600080fd5b505afa158015610c33573d6000803e3d6000fd5b505050506040513d601f19601f82011682018060405250810190610c5791906112b6565b905090565b6060600660003373ffffffffffffffffffffffffffffffffffffffff1673ffffffffffffffffffffffffffffffffffffffff168152602001908152602001600020805480602002602001604051908101604052809291908181526020018280548015610ce757602002820191906000526020600020905b815481526020019060010190808311610cd3575b5050505050905090565b600160009054906101000a900473ffffffffffffffffffffffffffffffffffffffff1681565b60008060009054906101000a900473ffffffffffffffffffffffffffffffffffffffff1673ffffffffffffffffffffffffffffffffffffffff16630a22b1346040518163ffffffff1660e01b815260040160206040518083038186803b158015610d8057600080fd5b505afa158015610d94573d6000803e3d6000fd5b505050506040513d601f19601f82011682018060405250810190610db8919061123b565b905090565b600360009054906101000a900473ffffffffffffffffffffffffffffffffffffffff1681565b600060055482029050610df53361034e565b811115610e37576040517f08c379a0000000000000000000000000000000000000000000000000000000008152600401610e2e906116d0565b60405180910390fd5b6000809054906101000a900473ffffffffffffffffffffffffffffffffffffffff1673ffffffffffffffffffffffffffffffffffffffff1663f7a1d19433600160009054906101000a900473ffffffffffffffffffffffffffffffffffffffff16846040518463ffffffff1660e01b8152600401610eb79392919061162e565b602060405180830381600087803b158015610ed157600080fd5b505af1158015610ee5573d6000803e3d6000fd5b505050506040513d601f19601f82011682018060405250810190610f099190611264565b5060008090505b828110156110915760006127104233600854604051602001610f34939291906115d6565b6040516020818303038152906040528051906020012060001c81610f5457fe5b069050600860008154809291906001019190505550600660003373ffffffffffffffffffffffffffffffffffffffff1673ffffffffffffffffffffffffffffffffffffffff1681526020019081526020016000208190806001815401808255809150506001900390600052602060002001600090919091909150556009819080600181540180825580915050600190039060005260206000200160009091909190915055336007600083815260200190815260200160002060006101000a81548173ffffffffffffffffffffffffffffffffffffffff021916908373ffffffffffffffffffffffffffffffffffffffff1602179055507f3dc84428040dff15296d25a054aea6c52a38e013683cf8175ec47e9849d101fe813360405161107b9291906117d4565b60405180910390a1508080600101915050610f10565b505050565b600260009054906101000a900473ffffffffffffffffffffffffffffffffffffffff1681565b60045481565b60008060009054906101000a900473ffffffffffffffffffffffffffffffffffffffff1673ffffffffffffffffffffffffffffffffffffffff166370a08231600260009054906101000a900473ffffffffffffffffffffffffffffffffffffffff166040518263ffffffff1660e01b81526004016111409190611613565b60206040518083038186803b15801561115857600080fd5b505afa15801561116c573d6000803e3d6000fd5b505050506040513d601f19601f8201168201806040525081019061119091906112b6565b905090565b6000670de0b6b3a764000082029050919050565b6000813590506111b881611912565b92915050565b6000815190506111cd81611912565b92915050565b6000815190506111e281611929565b92915050565b6000813590506111f781611940565b92915050565b60008151905061120c81611940565b92915050565b60006020828403121561122457600080fd5b6000611232848285016111a9565b91505092915050565b60006020828403121561124d57600080fd5b600061125b848285016111be565b91505092915050565b60006020828403121561127657600080fd5b6000611284848285016111d3565b91505092915050565b60006020828403121561129f57600080fd5b60006112ad848285016111e8565b91505092915050565b6000602082840312156112c857600080fd5b60006112d6848285016111fd565b91505092915050565b600080604083850312156112f257600080fd5b6000611300858286016111e8565b9250506020611311858286016111a9565b9150509250929050565b60006113278383611586565b60208301905092915050565b61133c816118a1565b82525050565b61135361134e82611859565b6118d7565b82525050565b61136281611847565b82525050565b60006113738261180d565b61137d8185611825565b9350611388836117fd565b8060005b838110156113b95781516113a0888261131b565b97506113ab83611818565b92505060018101905061138c565b5085935050505092915050565b60006113d3601f83611836565b91507f5469656e65207175652073657220756e2076616c6f7220706f73697469766f006000830152602082019050919050565b6000611413601483611836565b91507f4e6563657369746173206d617320746f6b656e730000000000000000000000006000830152602082019050919050565b6000611453601c83611836565b91507f4e6f207469656e657320746f6b656e7320737566696369656e746573000000006000830152602082019050919050565b6000611493601883611836565b91507f4e6f2068617920626f6c65746f7320636f6d707261646f7300000000000000006000830152602082019050919050565b60006114d3601483611836565b91507f45746865727320696e737566696369656e7465730000000000000000000000006000830152602082019050919050565b6000611513601083611836565b91507f4e6f207469656e65732061636365736f000000000000000000000000000000006000830152602082019050919050565b6000611553601983611836565b91507f4e6f2068617920746f6b656e7320737566696369656e746573000000000000006000830152602082019050919050565b61158f81611897565b82525050565b61159e81611897565b82525050565b6115b56115b082611897565b6118fb565b82525050565b60006115c782846115a4565b60208201915081905092915050565b60006115e282866115a4565b6020820191506115f28285611342565b60148201915061160282846115a4565b602082019150819050949350505050565b60006020820190506116286000830184611359565b92915050565b60006060820190506116436000830186611333565b6116506020830185611359565b61165d6040830184611595565b949350505050565b600060408201905061167a6000830185611359565b6116876020830184611595565b9392505050565b600060208201905081810360008301526116a88184611368565b905092915050565b600060208201905081810360008301526116c9816113c6565b9050919050565b600060208201905081810360008301526116e981611406565b9050919050565b6000602082019050818103600083015261170981611446565b9050919050565b6000602082019050818103600083015261172981611486565b9050919050565b60006020820190508181036000830152611749816114c6565b9050919050565b6000602082019050818103600083015261176981611506565b9050919050565b6000602082019050818103600083015261178981611546565b9050919050565b60006020820190506117a56000830184611595565b92915050565b60006040820190506117c06000830185611595565b6117cd6020830184611359565b9392505050565b60006040820190506117e96000830185611595565b6117f66020830184611333565b9392505050565b6000819050602082019050919050565b600081519050919050565b6000602082019050919050565b600082825260208201905092915050565b600082825260208201905092915050565b600061185282611877565b9050919050565b600061186482611877565b9050919050565b60008115159050919050565b600073ffffffffffffffffffffffffffffffffffffffff82169050919050565b6000819050919050565b60006118ac826118b3565b9050919050565b60006118be826118c5565b9050919050565b60006118d082611877565b9050919050565b60006118e2826118e9565b9050919050565b60006118f482611905565b9050919050565b6000819050919050565b60008160601b9050919050565b61191b81611847565b811461192657600080fd5b50565b6119328161186b565b811461193d57600080fd5b50565b61194981611897565b811461195457600080fd5b5056fea26469706673582212205e73e3311ad235acb64352142eae468eccd9135d02a0d98151253a82b13e243364736f6c63430006080033608060405234801561001057600080fd5b50604051611215380380611215833981810160405281019061003291906100da565b80600381905550600354600160003373ffffffffffffffffffffffffffffffffffffffff1673ffffffffffffffffffffffffffffffffffffffff16815260200190815260200160002081905550306000806101000a81548173ffffffffffffffffffffffffffffffffffffffff021916908373ffffffffffffffffffffffffffffffffffffffff16021790555050610124565b6000815190506100d48161010d565b92915050565b6000602082840312156100ec57600080fd5b60006100fa848285016100c5565b91505092915050565b6000819050919050565b61011681610103565b811461012157600080fd5b50565b6110e2806101336000396000f3fe608060405234801561001057600080fd5b50600436106100cf5760003560e01c8063313ce5671161008c57806395d89b411161006657806395d89b4114610216578063a9059cbb14610234578063dd62ed3e14610264578063f7a1d19414610294576100cf565b8063313ce567146101aa578063552cc062146101c857806370a08231146101e6576100cf565b806306fdde03146100d4578063095ea7b3146100f25780630a22b1341461012257806318160ddd146101405780631d43cc981461015e57806323b872dd1461017a575b600080fd5b6100dc6102c4565b6040516100e99190610f71565b60405180910390f35b61010c60048036038101906101079190610e61565b6102fd565b6040516101199190610f56565b60405180910390f35b61012a61043b565b6040516101379190610f3b565b60405180910390f35b610148610464565b6040516101559190610f93565b60405180910390f35b61017860048036038101906101739190610e9d565b61046e565b005b610194600480360381019061018f9190610e12565b6104ce565b6040516101a19190610f56565b60405180910390f35b6101b261084e565b6040516101bf9190610fae565b60405180910390f35b6101d0610853565b6040516101dd9190610f3b565b60405180910390f35b61020060048036038101906101fb9190610dad565b610878565b60405161020d9190610f93565b60405180910390f35b61021e6108c1565b60405161022b9190610f71565b60405180910390f35b61024e60048036038101906102499190610e61565b6108fa565b60405161025b9190610f56565b60405180910390f35b61027e60048036038101906102799190610dd6565b610ae1565b60405161028b9190610f93565b60405180910390f35b6102ae60048036038101906102a99190610e12565b610b68565b6040516102bb9190610f56565b60405180910390f35b6040518060400160405280600c81526020017f546f6b656e4c6f7465726961000000000000000000000000000000000000000081525081565b6000600160003373ffffffffffffffffffffffffffffffffffffffff1673ffffffffffffffffffffffffffffffffffffffff1681526020019081526020016000205482111561034b57600080fd5b81600260003373ffffffffffffffffffffffffffffffffffffffff1673ffffffffffffffffffffffffffffffffffffffff16815260200190815260200160002060008573ffffffffffffffffffffffffffffffffffffffff1673ffffffffffffffffffffffffffffffffffffffff168152602001908152602001600020819055508273ffffffffffffffffffffffffffffffffffffffff163373ffffffffffffffffffffffffffffffffffffffff167f8c5be1e5ebec7d5bd14f71427d1e84f3dd0314c0f7b2291e5b200ac8c7c3b925846040516104299190610f93565b60405180910390a36001905092915050565b60008060009054906101000a900473ffffffffffffffffffffffffffffffffffffffff16905090565b6000600354905090565b8060036000828254019250508190555080600160003373ffffffffffffffffffffffffffffffffffffffff1673ffffffffffffffffffffffffffffffffffffffff1681526020019081526020016000206000828254019250508190555050565b6000600160008573ffffffffffffffffffffffffffffffffffffffff1673ffffffffffffffffffffffffffffffffffffffff1681526020019081526020016000205482111561051c57600080fd5b600260008573ffffffffffffffffffffffffffffffffffffffff1673ffffffffffffffffffffffffffffffffffffffff16815260200190815260200160002060003373ffffffffffffffffffffffffffffffffffffffff1673ffffffffffffffffffffffffffffffffffffffff168152602001908152602001600020548211156105a557600080fd5b6105f782600160008773ffffffffffffffffffffffffffffffffffffffff1673ffffffffffffffffffffffffffffffffffffffff16815260200190815260200160002054610d5090919063ffffffff16565b600160008673ffffffffffffffffffffffffffffffffffffffff1673ffffffffffffffffffffffffffffffffffffffff168152602001908152602001600020819055506106c982600260008773ffffffffffffffffffffffffffffffffffffffff1673ffffffffffffffffffffffffffffffffffffffff16815260200190815260200160002060003373ffffffffffffffffffffffffffffffffffffffff1673ffffffffffffffffffffffffffffffffffffffff16815260200190815260200160002054610d5090919063ffffffff16565b600260008673ffffffffffffffffffffffffffffffffffffffff1673ffffffffffffffffffffffffffffffffffffffff16815260200190815260200160002060003373ffffffffffffffffffffffffffffffffffffffff1673ffffffffffffffffffffffffffffffffffffffff1681526020019081526020016000208190555061079b82600160008673ffffffffffffffffffffffffffffffffffffffff1673ffffffffffffffffffffffffffffffffffffffff16815260200190815260200160002054610d6790919063ffffffff16565b600160008573ffffffffffffffffffffffffffffffffffffffff1673ffffffffffffffffffffffffffffffffffffffff168152602001908152602001600020819055508273ffffffffffffffffffffffffffffffffffffffff168473ffffffffffffffffffffffffffffffffffffffff167fddf252ad1be2c89b69c2b068fc378daa952ba7f163c4a11628f55a4df523b3ef8460405161083b9190610f93565b60405180910390a3600190509392505050565b600281565b6000809054906101000a900473ffffffffffffffffffffffffffffffffffffffff1681565b6000600160008373ffffffffffffffffffffffffffffffffffffffff1673ffffffffffffffffffffffffffffffffffffffff168152602001908152602001600020549050919050565b6040518060400160405280600381526020017f4c4f54000000000000000000000000000000000000000000000000000000000081525081565b6000600160003373ffffffffffffffffffffffffffffffffffffffff1673ffffffffffffffffffffffffffffffffffffffff1681526020019081526020016000205482111561094857600080fd5b61099a82600160003373ffffffffffffffffffffffffffffffffffffffff1673ffffffffffffffffffffffffffffffffffffffff16815260200190815260200160002054610d5090919063ffffffff16565b600160003373ffffffffffffffffffffffffffffffffffffffff1673ffffffffffffffffffffffffffffffffffffffff16815260200190815260200160002081905550610a2f82600160008673ffffffffffffffffffffffffffffffffffffffff1673ffffffffffffffffffffffffffffffffffffffff16815260200190815260200160002054610d6790919063ffffffff16565b600160008573ffffffffffffffffffffffffffffffffffffffff1673ffffffffffffffffffffffffffffffffffffffff168152602001908152602001600020819055508273ffffffffffffffffffffffffffffffffffffffff163373ffffffffffffffffffffffffffffffffffffffff167fddf252ad1be2c89b69c2b068fc378daa952ba7f163c4a11628f55a4df523b3ef84604051610acf9190610f93565b60405180910390a36001905092915050565b6000600260008473ffffffffffffffffffffffffffffffffffffffff1673ffffffffffffffffffffffffffffffffffffffff16815260200190815260200160002060008373ffffffffffffffffffffffffffffffffffffffff1673ffffffffffffffffffffffffffffffffffffffff16815260200190815260200160002054905092915050565b6000600160008573ffffffffffffffffffffffffffffffffffffffff1673ffffffffffffffffffffffffffffffffffffffff16815260200190815260200160002054821115610bb657600080fd5b610c0882600160008773ffffffffffffffffffffffffffffffffffffffff1673ffffffffffffffffffffffffffffffffffffffff16815260200190815260200160002054610d5090919063ffffffff16565b600160008673ffffffffffffffffffffffffffffffffffffffff1673ffffffffffffffffffffffffffffffffffffffff16815260200190815260200160002081905550610c9d82600160008673ffffffffffffffffffffffffffffffffffffffff1673ffffffffffffffffffffffffffffffffffffffff16815260200190815260200160002054610d6790919063ffffffff16565b600160008573ffffffffffffffffffffffffffffffffffffffff1673ffffffffffffffffffffffffffffffffffffffff168152602001908152602001600020819055508273ffffffffffffffffffffffffffffffffffffffff168473ffffffffffffffffffffffffffffffffffffffff167fddf252ad1be2c89b69c2b068fc378daa952ba7f163c4a11628f55a4df523b3ef84604051610d3d9190610f93565b60405180910390a3600190509392505050565b600082821115610d5c57fe5b818303905092915050565b600080828401905083811015610d7957fe5b8091505092915050565b600081359050610d928161107e565b92915050565b600081359050610da781611095565b92915050565b600060208284031215610dbf57600080fd5b6000610dcd84828501610d83565b91505092915050565b60008060408385031215610de957600080fd5b6000610df785828601610d83565b9250506020610e0885828601610d83565b9150509250929050565b600080600060608486031215610e2757600080fd5b6000610e3586828701610d83565b9350506020610e4686828701610d83565b9250506040610e5786828701610d98565b9150509250925092565b60008060408385031215610e7457600080fd5b6000610e8285828601610d83565b9250506020610e9385828601610d98565b9150509250929050565b600060208284031215610eaf57600080fd5b6000610ebd84828501610d98565b91505092915050565b610ecf81610fe5565b82525050565b610ede81610ff7565b82525050565b6000610eef82610fc9565b610ef98185610fd4565b9350610f0981856020860161103a565b610f128161106d565b840191505092915050565b610f2681611023565b82525050565b610f358161102d565b82525050565b6000602082019050610f506000830184610ec6565b92915050565b6000602082019050610f6b6000830184610ed5565b92915050565b60006020820190508181036000830152610f8b8184610ee4565b905092915050565b6000602082019050610fa86000830184610f1d565b92915050565b6000602082019050610fc36000830184610f2c565b92915050565b600081519050919050565b600082825260208201905092915050565b6000610ff082611003565b9050919050565b60008115159050919050565b600073ffffffffffffffffffffffffffffffffffffffff82169050919050565b6000819050919050565b600060ff82169050919050565b60005b8381101561105857808201518184015260208101905061103d565b83811115611067576000848401525b50505050565b6000601f19601f8301169050919050565b61108781610fe5565b811461109257600080fd5b50565b61109e81611023565b81146110a957600080fd5b5056fea2646970667358221220602b5142c06cdbfdc5663df86cb8ebf7fa4abcaec65b7785c78c2a205f02afb664736f6c63430006080033",
  "immutableReferences": {},
  "source": "//SPDX-License-Identifier: MIT\r\npragma solidity >=0.4.4 <0.7.0;\r\npragma experimental ABIEncoderV2;\r\nimport \"./ERC20.sol\";\r\n\r\ncontract Loteria{\r\n\r\n    //Instancia del contrato Token\r\n    ERC20Basic private token;\r\n\r\n    // Direcciones\r\n    address public owner;\r\n    address public contrato;\r\n    address public direccion_ganador;\r\n\r\n    // Numero de tokens\r\n    uint public tokens_creados = 10000;\r\n\r\n    // Evento compra de Tokens\r\n    event ComprandoTokens(uint, address);\r\n\r\n    constructor() public {\r\n        token = new ERC20Basic(tokens_creados);\r\n        owner = msg.sender;\r\n        contrato = address(this);\r\n    }\r\n\r\n    // ------------------------------- TOKEN ----------------------------\r\n\r\n    function DireccionToken() public view returns(address){\r\n        return token.AddressContract();\r\n    }\r\n    \r\n    // Funcion para establecer el precio del token\r\n    function PrecioToken(uint _numTokens) internal pure returns(uint){\r\n        return _numTokens * (1 ether);\r\n    }\r\n\r\n    modifier OnlyOwner(address _direccion){\r\n        require(_direccion == owner, \"No tienes acceso\");\r\n        _;\r\n    }\r\n\r\n    // Generar mas Tokens por la loteria\r\n    function GeneraTokens(uint _numTokens) public OnlyOwner(msg.sender){\r\n        token.increaseTotalSupply(_numTokens);\r\n    }\r\n\r\n    function TokensDisponibles() public view returns(uint){\r\n       return token.balanceOf(contrato);\r\n    }\r\n\r\n    // Funcion para comprar Tokens para tener liquidez para los boletos\r\n    function CompraTokens(uint _numTokens, address _propietario) public payable{\r\n        // Cuantos ethers cuesta\r\n        uint precioToken = PrecioToken(_numTokens);\r\n\r\n        // Require que de suficientes ethers, y devolvemos el sobrante\r\n        require (msg.value >= precioToken, \"Ethers insuficientes\");\r\n        uint returnValue = msg.value - precioToken;\r\n        // Quien hace el pago con ethers es la persona que llama a la funcion\r\n        msg.sender.transfer(returnValue);\r\n\r\n        // Cuantos tokens tiene el smart Contract\r\n        require (_numTokens <= TokensDisponibles(), \"No hay tokens suficientes\");\r\n        token.transfer(_propietario, _numTokens);\r\n\r\n        emit ComprandoTokens(_numTokens, _propietario);\r\n\r\n    }\r\n\r\n    // Guardamos el bote en la direccion del propietario(owner)\r\n    function Bote() public view returns(uint){\r\n        return token.balanceOf(owner);\r\n    }\r\n\r\n    // Funcion para ver cuantos tokens tiene una persona\r\n    function MisTokens(address _direccion) public view returns(uint) {\r\n        return token.balanceOf(_direccion);\r\n    }\r\n\r\n\r\n    // ------------------------------- LOTERIA ----------------------------\r\n\r\n    // Saber el precio de boleto\r\n    uint public PrecioBoleto = 5;\r\n\r\n    // MAPPINGS\r\n    // Relacion entre el usuario y los numeros que posee\r\n    mapping (address => uint[]) idPersona_boletos;\r\n    // Relacion para identificar al ganador\r\n    mapping(uint => address) ADN_boleto;\r\n    // Numero aleatorio\r\n    uint randNonce = 0;\r\n    // Boletos generados\r\n    uint[] boletos_comprados;\r\n\r\n    // EVENTOS\r\n    event boleto_comprado(uint, address);\r\n    event boleto_ganador(uint);\r\n    event tokens_devueltos(uint, address);\r\n\r\n    // Funcion para comprar boletos de loteria\r\n    function CompraBoletos(uint _boletos) public{\r\n        // Precio total de los boletos\r\n        uint precio_total = _boletos * PrecioBoleto;\r\n        // Filtrado de los tokens a pagar\r\n        require (precio_total <= MisTokens(msg.sender), \"Necesitas mas tokens\");\r\n        // Transferir los tokens que valen los boletos al owner\r\n        token.transferencia_loteria(msg.sender, owner, precio_total);\r\n\r\n        // Para generar el numero del boleto, cojemos el hash de\r\n        // Now, la direccion del msg.sender, y el randNonce\r\n        // Y cojemos los ultimos 4 digitos, numero aleatorio 0 >= 9999\r\n        for(uint i = 0; i < _boletos; i++){\r\n            uint random = uint(keccak256(abi.encodePacked(now, msg.sender, randNonce))) % 10000;\r\n            randNonce++;\r\n\r\n            // Almacenamos los boletos\r\n            // En el mapping persona-> Boleto\r\n            idPersona_boletos[msg.sender].push(random);\r\n            // Y en los boletos en circulacion\r\n            boletos_comprados.push(random);\r\n            // Mapping Boleto-> Persona\r\n            ADN_boleto[random] = msg.sender;\r\n\r\n            emit boleto_comprado(random, msg.sender);\r\n        }\r\n    }\r\n\r\n    // Funcion para ver los boletos comprados de una persona a travs del mapping\r\n    function TusBoletos() public view returns(uint[] memory){\r\n        return idPersona_boletos[msg.sender];\r\n    }\r\n\r\n    // Funcion para generar un ganador aleatorio y darle los tokens\r\n    function GenerarGanador() public OnlyOwner(msg.sender){\r\n        // Que haya algun boleto\r\n        require(boletos_comprados.length > 0, \"No hay boletos comprados\");\r\n        // Declaracion del numero de boletos\r\n        uint longitud = boletos_comprados.length;\r\n\r\n        // Aleatoriamente se selecciona una posicion aleatorio de la array con el hash y el modulo de la longitud\r\n        uint posicion_array = uint (uint(keccak256(abi.encodePacked(now))) % longitud);\r\n        // Cojemos el numero del boleto desde la posicion\r\n        uint eleccion = boletos_comprados[posicion_array];\r\n        // Emitimos evento del ganador\r\n        emit boleto_ganador(eleccion);\r\n        // Recuperamos la direccion del ganador\r\n        direccion_ganador = ADN_boleto[eleccion];\r\n        // Enviamos los tokens para el ganador\r\n        token.transferencia_loteria(msg.sender, direccion_ganador, Bote());\r\n    }\r\n\r\n    function DevolverTokens(uint _numTokens) public payable{\r\n        // El numero de tokens tiene que ser positivo\r\n        require(_numTokens > 0, \"Tiene que ser un valor positivo\");\r\n        // El usuario tiene que tener los tokens\r\n        require(_numTokens <= MisTokens(msg.sender), \"No tienes tokens suficientes\");\r\n        // EL cliente devuelve los tokens al contrato\r\n        // Se le paga los ethers desde el contrato al cliente\r\n        // Se lo devolvemos al contrato, los tokens no van al bote(owner)\r\n        token.transferencia_loteria(msg.sender, address(this), _numTokens);\r\n        // Se le devuelve los ethers\r\n        msg.sender.transfer(PrecioToken(_numTokens));\r\n        // Emitimos evento\r\n        emit tokens_devueltos(_numTokens, msg.sender);\r\n    }\r\n\r\n}",
  "sourcePath": "C:\\Users\\adote\\Desktop\\Proyecto\\Loteria\\src\\contracts\\Loteria.sol",
  "compiler": {
    "name": "solc",
    "version": "0.6.8+commit.0bbfe453.Emscripten.clang"
  },
  "schemaVersion": "3.4.2",
  "updatedAt": "2022-05-01T16:52:09.602Z",
  "networkType": "ethereum",
  "devdoc": {
    "methods": {}
  },
  "userdoc": {
    "methods": {}
  }
}